:020000040002F8
:10600000008E0020DD630200E5630200E76302000A
:10601000E9630200EB630200ED6302000000000090
:10602000000000000000000000000000EF6302001C
:10603000F163020000000000F3630200F563020058
:10604000F1660200F7630200F16A0200F7630200E2
:10605000F7630200F763020029650200F76302009C
:10606000F7630200F7630200F7630200F7630200C0
:10607000F7630200F7630200F7630200F7630200B0
:10608000F763020049670200F7630200F76302004A
:10609000CD670200F7630200D1670200F7630200D8
:1060A000F7630200F7630200F7630200F763020080
:1060B000F7630200F7630200000000000000000028
:1060C000F7630200F7630200F7630200F763020060
:1060D000F7630200F7630200F763020000000000AC
:1060E00000000000000000000000000000000000B0
:1060F00000000000000000000000000000000000A0
:10610000000000000000000000000000000000008F
:10611000000000000000000000000000000000007F
:10612000000000000000000000000000000000006F
:10613000000000000000000000000000000000005F
:10614000000000000000000000000000000000004F
:10615000000000000000000000000000000000003F
:10616000000000000000000000000000000000002F
:10617000000000000000000000000000000000001F
:10618000000000000000000000000000000000000F
:1061900000000000000000000000000000000000FF
:1061A00000000000000000000000000000000000EF
:1061B00000000000000000000000000000000000DF
:1061C00000000000000000000000000000000000CF
:1061D00000000000000000000000000000000000BF
:1061E00000000000000000000000000000000000AF
:1061F000000000000000000000000000000000009F
:10620000DFF80CD000F052F9004800476D8C020016
:10621000008E002000B583B002900091019244F2FC
:10622000010071466A4600F0D5FD03B000BD0000D4
:1062300030B450E8012F93B2C48923448489A34227
:1062400028BF1B1B0489A34202BFBFF32F8F00206E
:1062500007E0C3EA020340E80134002CE9D14FF023
:1062600001000A6030BC704750E8012FC2EA0242C8
:1062700040E801210029F7D1704730B450E8022FDF
:106280001FFAA2F3C488A34202BFBFF32F8F0020DE
:106290000DE0C48923448489A34228BF1B1BC2EAA2
:1062A000034340E80234002CE8D14FF001000A60BB
:1062B00030BC704750E8022FC2EA224240E8022177
:1062C0000029F7D17047034653E8022FD988B2EB73
:1062D000324F4FF0000017BF92B241EA014142EA4B
:1062E000014104E05A68B2EB324F08BF012043E895
:1062F0000212002AE8D1704730B4044654E8000F77
:106300000D4644E80053002BF8D1156030BC7047AF
:1063100030B4044654E8000F40EA010544E8005355
:10632000002BF7D1156030BC704730B4044654E8F8
:10633000000F00EA010544E80053002BF7D1156077
:1063400030BC704730B4044654E8000F80EA0105C1
:1063500044E80053002BF7D1156030BC704730B4CF
:10636000044654E8000F00EB010544E80053002BFD
:10637000F7D1156030BC704730B4044654E8000FC4
:10638000A0EB010544E80053002BF7D1156030BCA9
:10639000704770B404464FF0000054E8006F0D6879
:1063A000AE4207BF44E80023012044E800630E60CA
:1063B000002B1CBF0020F0E770BC704730B40446CF
:1063C00054E8000F88422CBF451A054644E80053A4
:1063D000002BF5D1156030BC70470000064880479F
:1063E00006480047FEE7FEE7FEE7FEE7FEE7FEE7BA
:1063F000FEE7FEE7FEE7FEE7D56702000162020066
:10640000202A04DB203A00FA02F100207047914074
:10641000C2F1200320FA03F31943904070470000B3
:106420000048704710C4020040EA01039B0703D0F4
:1064300009E008C9121F08C0042AFAD203E011F8C3
:10644000013B00F8013B521EF9D27047D2B201E085
:1064500000F8012B491EFBD270470022F6E710B569
:1064600013460A4604461946FFF7F0FF204610BDC2
:10647000421C10F8011B0029FBD1801A704730B56F
:1064800004460020034600E05B1C934203D2E05C1C
:10649000CD5C401BF8D030BD034611F8012B00F84D
:1064A000012B002AF9D1184670470000064C074D11
:1064B00006E0E06840F0010394E8070098471034D4
:1064C000AC42F6D3FFF7A0FE4CCB02006CCB02002F
:1064D00070B58C1810F8015B15F0070301D110F8A6
:1064E000013B2A1106D110F8012B03E010F8016BD3
:1064F00001F8016B5B1EF9D12B0705D40023521E56
:106500000DD401F8013BFAE710F8013BCB1A921CBD
:1065100003E013F8015B01F8015B521EF9D5A142BB
:10652000D8D3002070BD00002DE9F04700268AB0C6
:10653000DFF85091B0464FF4807501243746069637
:10654000284603F0C9F838B1D9F80403204203D033
:10655000284603F0B7F826432D1D64007F1CADB21A
:10656000082FEDD34FF4BE74204603F0B5F848B1C0
:10657000204603F0A7F846F0004606AA01210020B5
:1065800003F08CF8404D16F0FF0F15D001270024C2
:1065900037420DD009EB8401D1F81005D1F8101560
:1065A000C0F3042055F82420C1F3014102B1904703
:1065B0007F00641C082CEBD3002E5FDA4FF0FF3015
:1065C000CDF8108054E0281910F8507F90F90000A1
:1065D00027F0C008401C3BD007A9404602F0ECFC65
:1065E00010B34FEA9719404601F0AEFC55F8207001
:1065F0001FB1B9F1030F03D006E0B9F1030F27D1A2
:1066000004A9404602F0E0FC4FF0A04101EB8800F5
:10661000D0F8000706A9C0F3014A404602F0CCFCBE
:1066200018B1BAF1020F03D012E0BAF1030F0FD183
:10663000B9F1030F08D1BAF1020F1DD00221404673
:1066400003F010F8761CF6B217B149464046B84739
:10665000641C042CB7D3002E10D06A460121002000
:1066600003F01CF806990098884207D00690049819
:10667000002634460790A6E70321E0E70AB0BDE80C
:10668000F0870000006000408463002000F01F02DB
:10669000012191404009800000F1E020C0F8801203
:1066A000704700F01F02012191404009800000F175
:1066B000E020C0F80011704700F01F020121914056
:1066C0004009800000F1E020C0F80012704749073F
:1066D000090E002806DA00F00F0000F1E02080F833
:1066E000141D704700F1E02080F80014704700008E
:1066F00070B54FF48076304602F03AFD114CB50586
:1067000060B1304602F03BFD0120C5F80803607916
:1067100020B9012060712168002088474FF48276FB
:10672000304602F025FD00280AD0304602F027FD51
:106730000220C5F808032168BDE870400120084721
:1067400070BD00001C5A002007480021C0F840110D
:10675000C0F84411C0F84811C0F84C11C0F800113D
:10676000C0F8041105F026B90010014000F0C6B9C8
:1067700070B50E46144900EB400001EBC00514460D
:10678000E86A183520B101280FD0022805D113E09E
:10679000284600F0E7F9A04201D2002411E0224689
:1067A0003146284600F016FA0BE0284600F0DAF9E8
:1067B000A042F4D20446F2E73146284600F0DDF963
:1067C0000446204670BD0000786B002005F040B8FC
:1067D00003F004BDF0B5B5480023021D0178101D7B
:1067E00001254FF0805406290BD11678360708D1C1
:1067F0000678C6F30316032E06D0042E04D0052E09
:1068000002D0062907D00EE0B4F82463A84FC6F3DF
:1068100004263E6002E01678360704D10678C6F3F7
:106820000316032E02D0062904D00FE0A24FA14E7A
:106830007E670EE01678360708D10678C6F3031691
:10684000032E06D0042E04D0052E02D0062907D030
:106850000EE0D4F84462994FC6F342363E6002E03F
:106860001678360704D10678C6F30316032E02D035
:10687000062906D011E0924E376827F080773760FE
:106880000EE01678360708D10678C6F30316032EF5
:1068900006D0042E04D0052E02D006290AD011E01D
:1068A0004FF08046C6F80C31C6F81031834E361FC3
:1068B000336002E01678360704D10678C6F3031673
:1068C000032E02D0062905D00CE07C4F0326643746
:1068D0003E600AE01678360704D10678C6F3031640
:1068E000032E02D006290DD014E0764F05263E6017
:1068F000744E78363560734E083633603F263F1D40
:106900003E6002E01678360704D10678C6F3031617
:10691000052E02D0062957D062E06B4E36686B4FC9
:106920003E60694E361D36683F1D3E60664E083635
:1069300036683F1D3E60644E0C3636683F1D3E6033
:10694000614E103636683F1D3E605F4E1436366825
:106950003F1D3E605C4E183636685C4F20373E6007
:10696000594E1C3636683F1D3E60574E20363668FD
:106970003F1D3E60544E243636683F1D3E60524EE9
:10698000283636683F1D3E604F4E2C3636683F1D18
:106990003E604D4E303636684C4F40373E604A4E72
:1069A000343636683F1D3E60474E383636683F1DE8
:1069B0003E60454E3C3636683F1D3E60424E403696
:1069C00036683F1D3E6002E01678360708D106782B
:1069D000C6F30316032E06D0042E04D0052E02D0D3
:1069E000062907D019E0D4F85812394A01F04F01AE
:1069F000116002E0117809070FD10078C0F303108D
:106A0000032803D0042801D0052806D131480168A5
:106A1000C90702D06FF001010160D4F830010628E7
:106A200008D1D4F83401062804D12B48016841F478
:106A30008061016022487438016841F4700101608E
:106A4000BFF34F8FBFF36F8F4FF01021D1F80002CB
:106A5000002803DBD1F80402002822DA1F4A15605F
:106A60001F480468002CFCD01524C1F800420568BA
:106A7000002DFCD0C1F8044201680029FCD013604D
:106A800001680029FCD0BFF34F8F0D48F038016832
:106A9000144A01F4E06111430160BFF34F8F00BF5E
:106AA000FDE7124910480860F0BD0000E00F00F05B
:106AB000403501400DF0ADBA00C007403C05004034
:106AC000FCED00E0105600400404001020C500401A
:106AD000E40E0040000400403C17004004E5014083
:106AE00000E401400400FA050090D0030C5B002094
:106AF0000148006800470000245A002010B5124CDD
:106B000002202061606111A0A06104F17800E061C1
:106B10004FF4007020620020A06260620BA1A164AB
:106B2000E06204F51E71E1641021A065C4E914104F
:106B3000E06509A1E01DFFF7AFFC08A12046FFF7C3
:106B4000ABFC2020A07110BD786B00205465726DE5
:106B5000696E616C00000000525454005345474771
:106B6000455200000269C1688A4203D88068401A11
:106B7000104400E0501A401E70472DE9F047C468E9
:106B80001746894606464FF000083069A04201D9F1
:106B9000051B02E0B168201A0D1AB0686D1E001BBB
:106BA000A84200D80546BD4200D33D4670682A463B
:106BB00020444946FFF738FCB0687F1B2C44A844AA
:106BC000A944A04200D10024F460002FDDD140464A
:106BD000BDE8F0872DE9F04104468846D4E9020774
:106BE000C51BE168606816460844B54206D94146AF
:106BF000FFF71AFCB819E060BDE8F0812A4641466B
:106C0000FFF712FC761B08EB050132466068FFF7C0
:106C10000BFCE660F0E70000014A024900F031B8E1
:106C20004F880200885A002002E008C8121F08C1DD
:106C3000002AFAD170477047002001E001C1121FFD
:106C4000002AFBD1704700000121202803DA81408F
:106C50000548014003E0402802DA2038814009B1AC
:106C60000120704700207047FC06FFBD082806D2AF
:106C700028B1012803D0042801D00120704700204A
:106C800070472DE9F04116460F460446002503E003
:106C90003946B047641C6D1C20780028F8D128467E
:106CA000BDE8F08131B500252C462146684602F04A
:106CB000F4F800B16D1C641C142CF6D3284638BDC2
:106CC00010B501220221002001F042F808B1072886
:106CD00018D107220221012001F03AF808B1072853
:106CE00010D100210A22084601F032F808B1072825
:106CF00008D10B220121002001F02AF808B1072851
:106D000000D1002010BD000070B50024084D05E042
:106D1000686810F8340003F06DFB641C2878844226
:106D2000F6D304484068BDE8704000F0E7B90000C1
:106D3000305A00200CC1020070B50024064D06E058
:106D40006868012110F8340003F078FB641C28788F
:106D50008442F5D3002070BD305A0020F8B51546A6
:106D60000C460646052A01D20720F8BD03F062FC56
:106D700018B903F027FC0028F7D1124900224E6011
:106D80000C708D60C1E90422C1E906220E4D0DE0B0
:106D900006EBC4002968009181788DF80110007815
:106DA0000A4A694603F09CFB0028DED1641EE4B267
:106DB000EED2BDE8F84004480021054A001D00F06D
:106DC0001DB90000305A00200CC102005D8802008D
:106DD000298202002DE9FE4314460F46804672B612
:106DE00002F010FF02F042FD0028FBD10125274EE2
:106DF000B8F1010F28D06FF4805118EB010028D0B2
:106E0000B0F5405F2CD06FF44051C84208D13088B3
:106E1000238805EB00401EA1626802F042FE06E0F6
:106E200030883A4605EB004020A102F033FE2548A9
:106E30000068C00700D000BE224603B03946404675
:106E4000BDE8F04300F080B830881FA105EB00409A
:106E500003E0308824A105EB004002F017FEE6E7CE
:106E6000A06803F065FA0346D4E90001CDE90010FB
:106E70000297308825A105EB0040A26802F019FEB8
:106E800030882CA105EB0040E7E70000445B0020C0
:106E9000415353455254494F4E204641494C454475
:106EA0002061742025733A2575000000554E4B4E25
:106EB0004F574E204641554C542061742030782560
:106EC00030385800F0ED00E0534F465444455649E1
:106ED00043453A20415353455254494F4E20464171
:106EE000494C454400000000534F46544445564920
:106EF00043453A20494E56414C4944204D454D4F5B
:106F00005259204143434553530000004552524FCC
:106F100052202575205B25735D2061742025733A0E
:106F200025750D0A50432061743A20307825303899
:106F300078000000456E64206F66206572726F7283
:106F4000207265706F72740008B501238DF80030EF
:106F50009DF80030144B186059609A606FF48041BE
:106F6000401807D001280FD1DA60D86800889861EE
:106F7000D86807E01A611869806858611869006864
:106F8000986118694068D861186858689868D86826
:106F9000186958699869D86972B600BF9DF80000F1
:106FA0000028FBD162B608BD5064002010B582688D
:106FB000C368934203D001F037FC002010BD0520C8
:106FC00010BD29B112B1531E134203D009207047DE
:106FD0000E2070470160838000218160C1600846F7
:106FE000704710B58268C3689A1A83889A4203D89A
:106FF00001F024FC002010BD042010BD074B9B783D
:1070000023B12AB120B10068037C1BB1082070476E
:10701000072070474174426100207047706400206F
:1070200070B504F0D1F9104800240B2104704470AD
:107030000E4D817014206C602C706C70FFF726FB75
:1070400007211420FFF743FB1420FFF72AFB084811
:10705000046007211120FFF73AFB0548001F006874
:10706000A860002070BD000070640020505A00200D
:10707000081501402DE9FC47DFF8789099F80230B7
:1070800073B368B3052902D20720BDE8FC874369C2
:1070900033B3437C012B25D00027044600258846C6
:1070A00016468DF80050684600F0EEF801A804F08E
:1070B00073FFC8B1012101700F4944600968C0E93C
:1070C0000218C0E904769DF8040089F801009DF8D3
:1070D000000000F0FDF81420FFF7EEFA2846D4E790
:1070E0000820D2E70F46D8E704259DF8000000F0FD
:1070F000EFF8F3E770640020041501400649897831
:1071000039B130B1416921B100210174022104F08B
:107110002DBC0820704700007064002070B50B4E35
:1071200001460B48B578FFF741FF04465DB10020EA
:10713000B070711C0122C81D02F092F818B105A2AE
:10714000CE21FFF767F8204670BD00008C5A002062
:10715000346600202E2E5C2E2E5C2E2E5C2E2E5C95
:107160002E2E5C2E2E5C636F6D706F6E656E747369
:107170005C6C69627261726965735C756172745C82
:107180006170705F756172745F6669666F2E63000F
:10719000F0B5244E89B01F460D00044672603FD002
:1071A000A888296882B22048FFF70BFF002835D154
:1071B000A889A96882B21C481030FFF702FF002896
:1071C0002CD1202219496846FFF72EF960690690F4
:1071D000207C00B101208DF814008DF81C70607CBB
:1071E00000B10E208DF81500E0680290A0680390B1
:1071F00020680190606800900A480D4A694608308E
:1072000001F0FAFF002809D1B0702068401C05D0B9
:1072100004490122491CC81D02F022F809B0F0BD42
:107220000720FBE78C5A002034660020A8C2020029
:10723000C9BB020010B501461048FFF7D2FE04009A
:1072400019D10F480F4A0178515C19B1001D03F0A4
:1072500073FC02E00C3003F057FB60B908490748A3
:107260000839FFF7A3FE30B905490122083904485F
:1072700002F006F80446204610BD000044660020D7
:10728000945A0020105A002030B5EFF3108172B6E6
:107290000D4A9468012324B10370002900D162B61D
:1072A00030BD93604FF0E023D3F88051074C254068
:1072B0001560C3F88041D3F8844154605A17C3F86D
:1072C000842100220270E8E77C650020FC06FFBDF7
:1072D0000B498A68002A11D000280FD1EFF31080E3
:1072E00072B60B684FF0E022C2F800314B68C2F86A
:1072F000043100228A60002800D162B67047000085
:107300007C6500202DE9F041064608680C46411CCA
:107310004FF0A0474FF0010506D005FA00F1C7F87D
:107320000815206802F08AF96068411C02D000212B
:1073300002F072F93168A069C1F82405607D227DF0
:1073400031681043C1F86C05D4E900123068C0F808
:107350001425C0F80C15207D012815D1A068411C0A
:1073600002D0002102F058F9E068411C05D08540A8
:10737000C7F80855E06802F061F9D4E902123068F4
:10738000C0F80825C0F81015BDE8F0812DE9F041DE
:10739000064608680C46411C4FF0A0474FF0010517
:1073A00006D005FA00F1C7F80815206802F050F978
:1073B0006068411C02D0002102F037F93168A069F1
:1073C000C1F82405607D217D32680843C2F86C0550
:1073D000D4E900123068C0F80C15C0F81425207DDF
:1073E000012815D1A068411C02D0002102F01DF92E
:1073F000E068411C05D08540C7F80855E06802F0F8
:1074000027F9D4E902123068C0F80825C0F8101531
:10741000BDE8F08178210148FFF71FB8405F0020E8
:10742000F8B506464FF000001500ADF8000015D085
:1074300009236A46304600F015F80446BDF80000FE
:10744000064458B154B12846FFF712F8A04205D1BE
:10745000224631462846FFF712F808B10020F8BD51
:107460000120F8BD70B588B182B10024158803E011
:10747000065D641C3444A4B2A54203D8061976788C
:107480009E4201D08C42F3D38C4201D3002070BDC8
:10749000A11C1180005D401E80B270BD054808B57A
:1074A000C16800918168684601F018FD0098FFF7F7
:1074B000F9FB08BD405F0020FFF7ACBF70B540B1DD
:1074C0000C4D297839B1044603F062FF28B1002041
:1074D00070BD0E2070BD082070BDE868062807D278
:1074E0000549226801EB8001401C0A60E860EEE774
:1074F000042070BDF8590020B85F002040B1054954
:1075000000220123CA600B70C1E9010210467047D6
:107510000E207047F859002070B504002DD00029C6
:107520002BD020480078002827D020880D4611282D
:1075300015D0302804D0322807D033281ED109E0D6
:10754000211D284603F0C8FD18E0211D284603F040
:107550001FFC13E0211D284603F0F4FC0EE0A08878
:10756000B5F8CA12884209D1002085F8C70285F80B
:10757000C8024FF6FF70A5F8CA0270BD95F8C802A0
:107580000028FAD020883028F7D34F28F5D8A088D3
:10759000B5F8CA128842F0D12846BDE8704000F024
:1075A000F5BE0000F859002048B1084A137843B1ED
:1075B000D26832B190F8C7222AB1112070470E204C
:1075C00070470820704700F0E1BE0000F859002025
:1075D00038B50188041D1F297ED012DC67484FF0A2
:1075E00003021029008802EB00401CD0112974D03E
:1075F0001B2973D01D2971D1201DBDE8384003F02F
:10760000A9BA21296BD03B296AD0562966D1808836
:10761000132176DF002861D059A240F2EA21BDE8AB
:107620003840FEF7F7BD228859A102F033FA2088CE
:10763000082805D352A240F25D210020FEF7EAFDA2
:107640002188604D002205EB011000F0EFF90346A0
:107650005D484068072803D85B4A217810321154EE
:1076600070B101280ED002280ED003280ED00428B5
:107670000ED005280ED006280ED007280ED012E016
:1076800052480CE052480AE0524808E0524806E0EE
:10769000524804E0524802E0524800E05248218833
:1076A00005EB01118860180004D035A240F2852155
:1076B000FEF7B0FD2188444AB3204843183202EB5C
:1076C0008000FFF771FF112805D020B12CA240F2F5
:1076D0008B21FEF79FFD04E030E015E043E036E04B
:1076E00042E0012000F022FBFFF7D8FE08284FF00F
:1076F000000005D000F01AFBBDE8384003F0C2BE20
:10770000BDE8384000F00ABB2379228837A102F097
:10771000C8F9FFF7C3FE50B9FFF7F6FA20B118A277
:1077200040F2AB21FEF776FD012000F0F7FA03F0FE
:10773000A9FEBDE83840002000F0F8BA2088211DDD
:1077400075DF00280FD00EA24FF4337167E70021D8
:107750000091808869468FDF002804D008A24FF48A
:107760003671FEF757FD38BD8088132176DF00287B
:10777000F9D003A240F2E12151E70000445B002070
:107780002E2E5C2E2E5C2E2E5C6D61696E2E63009B
:10779000436F6E6E656374696F6E20307825782054
:1077A00065737461626C69736865642C20737461BD
:1077B0007274696E6720444220646973636F7665F2
:1077C00072792E00945E0020684300203D84020000
:1077D000AD8402001D85020091850200058602002D
:1077E00079860200ED860200618702004C42532038
:1077F00063656E7472616C206C696E6B20307825E5
:107800007820646973636F6E6E65637465642028A5
:10781000726561736F6E3A20307825782900000018
:1078200010B51A4C0188606810290ED011292BD18F
:10783000401E606028D1FFF743FA002824D0216859
:10784000002921D0BDE810400847D0B9002101220D
:10785000084600F07DFA08B107280FD1072202215F
:10786000012000F075FA08B1072807D1042202218F
:10787000002000F06DFA20B1072802D0216801B184
:1078800088476068401C606010BD0000F05900200F
:107890002DE9F04F0746858802883E48012197B0C0
:1078A0008346102A09D0112A4BD01A2A6ED1387A71
:1078B000B1EB101F47D2012246E0364C083CA068CD
:1078C000C0430B9061680BA801F008FB0B990CA852
:1078D00000F0DCFB2C220CA96846FEF7A5FD002673
:1078E000E946A04610E000BF09EB46005FF0000447
:1078F000B0F804A008EB84005146001D01F0C2FA64
:10790000641C1D2CF6D3761C0098B042ECD8142DC4
:1079100007D317B0E321BDE8F04F1FA20420FEF704
:1079200079BC2946584601F0C3FA294608F10400FB
:1079300001F0BEFAF87B012828D016482946001D20
:1079400015E029461AE000220221B1EB101F01D2F6
:10795000012600E000260F49083901F11000041D3E
:10796000294682B101F0A4FA36B12946204617B063
:10797000BDE8F04F01F09CBA2946204617B0BDE89B
:10798000F04F01F07FBA01F07DFAF5E717B0BDE8DE
:10799000F08F0000485F00202E2E5C2E2E5C2E2ED5
:1079A0005C2E2E5C2E2E5C2E2E5C636F6D706F6EC7
:1079B000656E74735C626C655C636F6D6D6F6E5C3D
:1079C000626C655F636F6E6E5F73746174652E6366
:1079D0000000000070B518B30288A2F57F41FF399E
:1079E0001CD0104C4388104D206800EB8001401CD7
:1079F00000F00700206005EB810102204B81C88167
:107A0000081D086100248C810120087208714C71E6
:107A10000A80887004F008F8204670BD082070BD08
:107A20000E2070BD085A0020D062002040B10180B5
:107A300022B11168C0F802109188C18000207047FF
:107A40000E20704730B5134D040085B02DCD8DE864
:107A50002D001DD0E1B10868D0B100206080A08069
:107A6000E0804FF6FF7020800868A06004F10C01F0
:107A7000684662DF002809D1207B8DF8120041F2B0
:107A80002350ADF8100004A8FFF718FD05B030BD75
:107A90000E20FBE7E4C0020000B585B0002924D029
:107AA000002822D00288112A2AD0382A1FD0392A49
:107AB0001BD10A4609888388994216D14189938847
:107AC000994212D102218DF800101188ADF80210F0
:107AD000017C8DF8041000F110010391C089ADF80C
:107AE0001000936869461046984705B000BD0988A4
:107AF00080888142F9D105B05DF804EB03F094BFB2
:107B00000A8880888242F0D14FF6FF7008800020FA
:107B100048808880C880E8E7FEB515460E46040018
:107B20000BD013480321F42D008801EB004006D947
:107B300010A101F0ABFF0720FEBD0E20FEBD218885
:107B4000A1F57F42FF3A10D00FA101F09FFF12482C
:107B500007C88DE80700E088ADF80200ADF80650D0
:107B6000029620886946A3DFFEBD0820FEBD000006
:107B7000185B0020436F6E74656E7420746F6F2005
:107B80006C6F6E672E00000077726974696E6720F3
:107B900074696D652E000000F4C0020070B518B362
:107BA0000288A2F57F43FF3B1CD0104C104D236888
:107BB00003EB83025B1C03F00703236005EB8202E7
:107BC000C38853810123D381141D1461002494813F
:107BD00002241472117100881080937003F024FF46
:107BE000002070BD082070BD0E2070BD085A002016
:107BF000D062002010B50A7886B0002A3FD18A886A
:107C0000A2F5A853233B3AD18A79037B9A4236D115
:107C100001228DF800204A88ADF80220002217E0EA
:107C200002EBC20301EB430333F80E4F04F6DC24EE
:107C3000B4F5005405D0012C09D11B89ADF80830EA
:107C400005E01C89ADF806405B89ADF80430521C94
:107C50000B7A9342E4D80188A1F57F42FF3A0BD01A
:107C6000C18849B9818839B9418829B90199C0F8D1
:107C70000210BDF80810C18082686946904706B0BE
:107C800010BD000008B502F06DFA20B10D4A40F2B7
:107C90000D31FEF7BFFA002000906946012002F086
:107CA000CBF820B1074A40F21331FEF7B3FA684629
:107CB00002F048F9002804D0024A40F21731FEF7DA
:107CC000A9FA08BD688D02002DE9FC410646C007EF
:107CD0004FF000050ED0104F00240122385D0095B2
:107CE00000231146019501F04FFC641C042CF4D3D1
:107CF00000F024F8B0070DD5074E0024361D0022F1
:107D0000305D032300951146019501F03DFC641C94
:107D1000042CF4D3BDE8FC8148C002000249085C91
:107D2000012101F0B0BC000048C002000249085C1B
:107D3000002101F0A8BC000048C0020010B50024DA
:107D40002046FFF7EBFF641C042CF9D310BD0000A4
:107D500070B50023042810D20D4D00EB4004012A19
:107D600002D101290CD00022094E00EB4000304422
:107D700061B1012906D0022906D00723184670BD3B
:107D80000E30C2B22A55F9E74270F7E78270F5E784
:107D9000335F00202DE9F8430546861C00208DF84E
:107DA000000090460F464FF001096846FFF76CFA55
:107DB0001B4C20683860D4E90001401AA16804F225
:107DC0001C47081A0EE00121384601F081F800F046
:107DD000FFFE0146384601F07BF8D4E90001401A65
:107DE000A168081A401C8642EDD8B8F1000F03D0F4
:107DF000052065F3891002E0062065F39F50A26814
:107E00002168114004EB8101C86020683044206083
:107E10009DF80000FFF75CFA4846BDE8F8830000D3
:107E20005467002030B482680468531C8360A154F6
:107E3000D0E901128A4202D330BC01F03EBA30BC14
:107E400070470000034803C8814201D101207047F8
:107E5000002070475467002070B5114D03260C4672
:107E60000D2808D00E280FD0BDE870400DA240F2BA
:107E70006331FEF7CFB9084600F014FE2888224689
:107E800006EB00400BA107E0084600F00BFE288837
:107E9000224606EB00400DA1BDE8704001F0FABD9E
:107EA000445B00202E2E5C2E2E5C2E2E5C6D6169B4
:107EB0006E2E63004C4253207772697465204C45E6
:107EC0004420737461746520256400004C42532083
:107ED0007772697465204C4544322073746174650F
:107EE0002025640005494FF0FF32082841F8202082
:107EF00002D3084480F848207047000084630020C3
:107F0000F0B54FF0FF3512B10023082601E0082339
:107F10000C260C4C05E000BF54F823707F1C04D0E5
:107F20005B1CB342F8D32846F0BD26185DB286F834
:107F3000305044F82310002AF5D1E11881F84800A8
:107F4000F1E70000846300200249084490F9300002
:107F5000704700008463002008B5024690F8C6020E
:107F60000B4600EB8001C1EB801002EB400092F861
:107F7000C52242B1521ED2B202EBC20100EB410255
:107F8000518A491C00E0C188ADF800100089ADF8A5
:107F90000200694618469DDF08BD000070B5084C18
:107FA000050009D010342168002907D00868206036
:107FB000496828468847F6E70834F4E770BD0000B2
:107FC00070630020054A012120B1012805D191707C
:107FD000FFF7E4BF51700020FAE77047706300209C
:107FE0002DE9F05F26484168F1B3DFF898B00E68DC
:107FF0008146DBF8004087688078E11B21F07F45EF
:10800000ED1CB0B9DFF880804FF48030C8F844032D
:10801000C8F804031120FEF739FB1120FEF741FBDD
:108020004FF0010AC8F800A02F2002F0DBF989F810
:1080300002A0B54200D23546124BE8193C3320F07D
:108040007F401860DBF800105A46091B21F07F4181
:10805000001B20F07F40C91C81420FD910681860B6
:108060002F2002F0BFF900E004E0BDE8F05F11202E
:10807000FEF722BBBDE8F05F03F0A6B9BDE8F09FB4
:10808000505A0020041501400010014073B58CB017
:108090000646002000900D9880B100246D462146D0
:1080A0000DA800F0FAFE30B1009805EB4000848086
:1080B0000098401C0090641C142CF0D32C226946BC
:1080C0003046FEF7B1F90EB070BD0000F0B587B0D4
:1080D000074600200490ADF810100590ADF812107E
:1080E0000190029001AA04A9384690DF060022D030
:1080F00002F01EF9114C0346012520883A4605EB93
:1081000000400F4901F0CDFCBDF8042012B9BDF8C4
:10811000060038B12088BDF8063005EB004009A103
:1081200001F0BFFCBDF808202AB12088154905EBF5
:10813000004001F0AFFC07B03046F0BD145B0020FA
:1081400014C40200546865207265717565737465A6
:10815000642054582F5258207061636B6574206CF2
:10816000656E67746820697320746F6F206C6F6E22
:10817000672062792025752F2575206F63746574DB
:10818000732E000060C402004188034A02EB011212
:1081900001461046FFF72EBD945E00202DE9F843FE
:1081A000054690F8C6020F4600EB8001C1EB801037
:1081B00005EB400695F8C542914604EBC40006EB7A
:1081C00040013279601C0A31904226D16B46002270
:1081D000284600F03FFC18B310E0401EA04201D139
:1081E000002004E004EBC40006EB40001C30804695
:1081F00002466B46284600F02DFC30B10020387056
:10820000694648469EDFBDE8F88395F8C5024146B9
:10821000401C641C85F8C502E4B23079A042DCD869
:10822000012038700020EEE72DE9F0470025DFF847
:108230008C803CE06068002100EBC50601203278AC
:108240009146FEF7DDF8D4E9062300EA020701EAC9
:10825000030C57EA0C0728D082438B434846C4E9F5
:10826000062302F0A5F932788246914601200021CA
:10827000FEF7C6F8D4E9042300EA020401EA030782
:108280004A4650460021FEF7BBF844404F403C436D
:108290000BD17078012801D0012100E00021726823
:1082A00081EA0A010AB1484690476D1CEDB298F880
:1082B000000044468542BDD3BDE8F087305A002017
:1082C0002DE9F047894690F8C612904601EB8102ED
:1082D000C2EB811100EB4107384603F059F8060064
:1082E0002FD0194CA06806282BD2184D762205EB0A
:1082F000C0103946A0F80280001DFEF795F800274F
:10830000B9F1000F04D0A06805EBC010077004E0BD
:10831000A168022005EBC1110870A06805EBC0112F
:10832000401CCE67A060E16888420AD1002604E0C4
:1083300005EBC610C16F8847761CE0688642F7D30C
:10834000A760BDE8F0870000F8590020D05F00204A
:1083500070B50E4690F8C612154601EB8102C2EBCD
:108360008111A0B000EB410003F012F8040009D025
:108370007C2205496846FEF757F8ADF8025068467A
:108380000196A04720B070BD50C0020070B50E46E7
:1083900004464FF43371FEF760F811480025A4F845
:1083A000CA62856084F8C9520E4884F8C65284F8BF
:1083B000C552006820602246012130469BDF012122
:1083C000112806D0002809D184F8C71284F8C852B1
:1083D00003E084F8C71284F8C812002070BD0000C2
:1083E000F8590020B85F002010B50021024800F0C5
:1083F00080FD80F3100010BD706B00200E4910B599
:108400000A784C780023A24212D0521CD2B20A70D1
:10841000022A00D10B70084A0B780C3252F8232044
:1084200002608868104420F07F408860012010BD01
:108430000360002010BD0000505A002070B50446B3
:1084400008780D46012809D0022826D14120FEF7E0
:10845000F1FE3020FEF7EEFE002416E0FEF76CFC85
:1084600018B10EA2D121FDF7D5FE2046FFF7B2FAD2
:10847000002812D0BDE8704008A2D521FDF7CABE81
:10848000E868005DFEF7D6FE641C288AA042F7DC8F
:10849000BDE870400A20FEF7CDBE70BD2E2E5C2ECA
:1084A0002E5C2E2E5C6D61696E2E630070B50446E5
:1084B00008780D46012809D0022826D14120FEF770
:1084C000B9FE3120FEF7B6FE002416E0FEF734FCBC
:1084D00018B10EA2EE21FDF79DFE2046FFF77AFAB5
:1084E000002812D0BDE8704008A2F221FDF792BE2C
:1084F000E868005DFEF79EFE641C288AA042F7DC57
:10850000BDE870400A20FEF795BE70BD2E2E5C2E91
:108510002E5C2E2E5C6D61696E2E630070B5044674
:1085200008780D46012809D0022828D14120FEF7FD
:1085300081FE3220FEF77EFE002418E0FEF7FCFBF1
:1085400020B10FA240F20B11FDF764FE2046FFF7A9
:1085500041FA002813D0BDE8704009A240F20F1183
:10856000FDF758BEE868005DFEF764FE641C288ACB
:10857000A042F7DCBDE870400A20FEF75BBE70BD8C
:108580002E2E5C2E2E5C2E2E5C6D61696E2E63008D
:1085900070B5044608780D46012809D0022828D174
:1085A0004120FEF747FE3320FEF744FE002418E08A
:1085B000FEF7C2FB20B10FA240F22911FDF72AFEFF
:1085C0002046FFF707FA002813D0BDE8704009A243
:1085D00040F22D11FDF71EBEE868005DFEF72AFE91
:1085E000641C288AA042F7DCBDE870400A20FEF730
:1085F00021BE70BD2E2E5C2E2E5C2E2E5C6D616910
:108600006E2E630070B5044608780D46012809D027
:10861000022828D14120FEF70DFE3420FEF70AFE85
:10862000002418E0FEF788FB20B10FA240F24711AA
:10863000FDF7F0FD2046FFF7CDF9002813D0BDE887
:10864000704009A240F24B11FDF7E4BDE868005DFF
:10865000FEF7F0FD641C288AA042F7DCBDE87040FC
:108660000A20FEF7E7BD70BD2E2E5C2E2E5C2E2E4E
:108670005C6D61696E2E630070B5044608780D4626
:10868000012809D0022828D14120FEF7D3FD35204A
:10869000FEF7D0FD002418E0FEF74EFB20B10FA23C
:1086A00040F26511FDF7B6FD2046FFF793F900286B
:1086B00013D0BDE8704009A240F26911FDF7AABDD0
:1086C000E868005DFEF7B6FD641C288AA042F7DC6E
:1086D000BDE870400A20FEF7ADBD70BD2E2E5C2EA9
:1086E0002E5C2E2E5C6D61696E2E630070B50446A3
:1086F00008780D46012809D0022828D14120FEF72C
:1087000099FD3620FEF796FD002418E0FEF714FBD5
:1087100020B10FA24FF4C271FDF77CFD2046FFF798
:1087200059F9002813D0BDE8704009A24FF4C47174
:10873000FDF770BDE868005DFEF77CFD641C288ACB
:10874000A042F7DCBDE870400A20FEF773BD70BDA3
:108750002E2E5C2E2E5C2E2E5C6D61696E2E6300BB
:1087600070B5044608780D46012809D0022828D1A2
:108770004120FEF75FFD3720FEF75CFD002418E086
:10878000FEF7DAFA20B10FA240F2A111FDF742FD87
:108790002046FFF71FF9002813D0BDE8704009A25A
:1087A00040F2A511FDF736BDE868005DFEF742FD19
:1087B000641C288AA042F7DCBDE870400A20FEF75E
:1087C00039BD70BD2E2E5C2E2E5C2E2E5C6D616927
:1087D0006E2E630030B50446006887B00D46806891
:1087E00000281FD018216846FDF737FE0195A068C4
:1087F0000590207910B1012810D107E001208DF8F3
:10880000000020690290E068039005E002208DF8E6
:108810000000E068000302906069049020688168AD
:108820006846884707B030BD826883881A4003686D
:108830009A5C0A708168491C81607047C2688388AD
:108840001A4003689954C168491CC160704710B54B
:108850000446C0B2FEF7EEFC204610BD2DE9F04103
:108860008046024601200021FDF7CAFD1A4F054649
:108870000E467868FEF742FC00280CD1174CD4E96C
:10888000062110462A4001EA06031A4305D0A843F0
:10889000B143C4E90601BDE8F081404601F088FE1D
:1088A00030B1D4E9040128433143C4E9040105E0AF
:1088B000D4E90410A943B043C4E90410D4E9060183
:1088C00028433143C4E90601A1687868BDE8F04156
:1088D0000022FEF7CFBB00000CC10200305A00207E
:1088E0002DE9FC5F0E008346DDE90C47C6F1000070
:1088F00098469246814600D40846012503E000BF11
:1089000090FBFAF06D1C5045FADAA84500D94546AF
:1089100024B1002E01DB780700D5641EB80702D50C
:10892000B8F1000F0AD0F80708D13CB1A54205D232
:1089300020215846641EFFF775FAF6E7002E02DA8A
:108940004E462D2102E0780703D52B215846FFF72C
:1089500069FA07F0030002280BD1B8F1000F08D123
:108960003CB1A54205D230215846641EFFF75AFAA1
:10897000F6E7CDE90047434652463146584603F0F4
:10898000B1FABDE8FC9F000070B50D4604460068D2
:108990004FF4887101F0ECFC4FF49071206801F005
:1089A000E7FC4FF49271206801F0E2FC4FF4A271F1
:1089B000206801F0DDFC20681249C0F8041320682B
:1089C0006907000B40B2090E002806DA00F00F001C
:1089D00000F1E02080F8141D03E000F1E02080F8B1
:1089E000001420680121000B40B200F01F029140EA
:1089F0004009800000F1E020C0F88012C0F80011AA
:108A000070BD0000100302000246002012689307A8
:108A100002D0530702D47047500714D502F0030068
:108A2000012802D002280CD105E0C2F383100B68A4
:108A3000801C184404E00223086803EB925210449F
:108A4000086001207047086800EB9253C2F3891058
:108A5000401CEEE710B509892AB1D088491C814233
:108A600018D1002010BD90F8C62202EB8204C4EB9E
:108A7000821200EB420212899142F2D0491C198005
:108A800090F8C61201EB8102C2EB811100EB4100AC
:108A9000008902E01980D088401E5880012010BD56
:108AA0007047000010B501460548FFF777F828B178
:108AB000A0F54051023901D0082800D1002010BD96
:108AC000945E0020172101804180002101714171D5
:108AD0001B218171C17170472DE9F047394E002784
:108AE00080463D46DFF8E090D6F804A057E003D07A
:108AF0000446D0F81C8035E099F8002002EB4201D2
:108B0000521CD2B289F8002009EBC10199F8023059
:108B1000091D9A4201D189F8005048680A78044634
:108B2000012A12D0022A02D0032A3BD108E002F027
:108B3000EDFE00B10127257434E00574C06900E042
:108B400070680028F9D170602CE0207C50BB8868E8
:108B50006060C868A0600869E0604869A061F0785A
:108B600000B165606268B168184B501A20F07F4010
:108B7000984202D2A168084406E0881AA16820F051
:108B80007F40814202D9081A206000E025606560BC
:108B90000120A56020742046E56102F099FEB8F13D
:108BA0000000A4D199F8001099F801008142A3D1E6
:108BB00017B97168514502D00120BDE8F087002047
:108BC000FBE70000505A002070640020FFFF7F0088
:108BD0002DE9FF410026234800F077F92148001FC6
:108BE000074600F072F9204C60680090A56800E02C
:108BF00000986946284004EB80000C30FFF704FF22
:108C00000028F5D101AA009901EA050304EB8303CA
:108C1000491CDB6842F82030401C00910228F2D346
:108C2000019800F0030001280BD0022810D1019810
:108C3000032101EB90500099BDF80A6001EB900010
:108C400005E00198BDF80A60C0F383100844009065
:108C5000384600F037F908B10098606004B030463B
:108C6000BDE8F0816C6B0020546700208AB04FF49F
:108C70000041002000F082FF20B13BA240F2E2312F
:108C8000FDF7C8FA00F0E4FDFEF7CAF920B136A2FC
:108C900040F2ED31FDF7BEFA182237496846FDF77C
:108CA000C3FB3648069036494FF48070CDE9070182
:108CB00009900723334A06A96846FEF769FA20B1EE
:108CC00029A240F20E41FDF7A5FA0120FEF7FCFFB4
:108CD00040F2666202212C48FEF740F820B122A241
:108CE00040F27731FDF796FA01F066F820B11EA246
:108CF0004FF47371FDF78EFAFEF7C4FF002123488D
:108D000000F06CF920B118A240F2F631FDF782FABA
:108D10001F48FEF7F3FB20B113A240F2C231FDF76A
:108D200079FA1A4D1B4800244C3540F2FF2600907A
:108D300005EB04106946FEF785FE18B10AA231461C
:108D4000FDF768FA641C082CF2D3FEF7B5FB12A0FD
:108D5000FDF762FF02F096FB00F088FD0028FBD1D2
:108D600001F03EF8F8E700002E2E5C2E2E5C2E2E31
:108D70005C6D61696E2E630030C00200485C0020AB
:108D8000485D0020ADBA0200E0590020485E002096
:108D900089810200A18A02007878787878787878DA
:108DA00078787878787878787878787878000000AB
:108DB0002DE9F047C7880446181D16468946B0FBC2
:108DC000F7F1B0FBF7F207FB12009A193A44D21CF4
:108DD000B2FBF7F2DDF820A001E02468491E00296B
:108DE000FBD13D1A8846B54216D818E0BAF1000FFB
:108DF00005D0211809EB08002A46091D04E020448B
:108E000009EB08012A46001DFDF70EFB002024682F
:108E1000761BA844B74201D9354600E03D46002EF6
:108E2000E4D1BDE8F087000030B5024659B100F04A
:108E3000D1FE0021074C09E004EB810315685B8833
:108E4000AB4202D11160002030BD491C8142F3D3F6
:108E5000052030BD105B002010B50A8849888A4281
:108E600003D1FDF727FA012010BD002010BD70B519
:108E70000C460546FDF701FA002802D061882868F3
:108E8000084470BD01F01F0301229A40D2434909F2
:108E900000EB8100114600F021B84A0950F8220089
:108EA00001F01F0201219140084000D001207047CD
:108EB00001F01F0301229A40490900EB810011468D
:108EC00000F01CB8002100F00FB8012100F016B826
:108ED00008B56A46FDF743FA009808BD08B56A462A
:108EE000FDF723FA009808BD08B56A46FDF71DFA9C
:108EF00008BD08B56A46FDF7FFF908BD08B56A4622
:108F0000FDF706FA009808BD08B56A46FDF734FA81
:108F1000009808BD38B5044600258DF80050684615
:108F2000FEF7B2F921686268086890420ED9401EC7
:108F300008600178A38AE26801FB0325227A216890
:108F4000101AC0B20A79824200D208719DF800005E
:108F5000FEF7BEF9284638BD38B5054600208DF825
:108F600000000C466846FEF78FF9E868A98A201AC7
:108F7000B0FBF1F12A681068431C136001709DF882
:108F80000000FEF7A5F938BD10B530B1017A42688E
:108F90000368891AC9B21A6006E00E2010BD036882
:108FA0001A68541C1C601170491EC9B2F7D20068BF
:108FB00000210171084610BDC20800F0070301201E
:108FC000895C98400840704710B5C20800F007035C
:108FD000885C01249C402043885410BD70B5040077
:108FE00010D01720A164208060801B2020710025F4
:108FF00004EBC500801DFFF765FD6D1C082DF7D340
:10900000002070BD0E2070BD2DE9F04185888EB026
:109010000C46082D7ED20188464E4FF000082429C8
:1090200040D006DC102909D011290CD023295FD1AA
:1090300054E03A290DD055295AD12EE00146204658
:1090400001F030FF54E004EBC500801DFFF73AFD4E
:109050004EE0294604EBC107408937F8062F8242CB
:1090600000D810467880172800D217207880A06C8E
:1090700070B1787960B1D6E90002CDE90002ADF8AF
:1090800002107888ADF80400A26C2046694690472B
:1090900087F8058087F804802AE00146204601F021
:1090A000C9FF25E0011D2C226846FDF7BDF9BDF87A
:1090B0000000BDF8042004EBC0014A73A26CBAB1F1
:1090C000D6E90423CDE90B23ADF82E00487B8DF8BB
:1090D0003000A26C20460BA9904709E004EBC503C1
:1090E000017A187B884200D201462846FEF7EEFF3F
:1090F00004EBC504A07A002818D0E1882846A5DF33
:10910000012580B1112811D001F012F902460A4858
:10911000008800E00AE00EB005EB0040BDE8F04139
:1091200006A100F0B7BC84F80A80E5720EB0BDE875
:10913000F0810000CCC00200145B002073645F6209
:109140006C655F67617474635F65786368616E679F
:10915000655F6D74755F726571756573742829201C
:1091600072657475726E65642025732E00000000B0
:1091700000F180400068002800D00120704708B549
:1091800000F18040002101600068009008BD0000EF
:1091900070B50B4C207808B185250FE00020A06049
:1091A00060602061E060074801F0FEF8054601F0CC
:1091B00027F808B901F0E2F801202070284670BDB8
:1091C00070630020C57F020038B500258DF800507F
:1091D0006846FEF759F8074CE068401EE060E0681A
:1091E00010B901F0F1F8A5709DF80000FEF770F8D5
:1091F00038BD000070630020F0B5054604781548BE
:1092000089B0164640F82420124A0869121DA2F1BE
:10921000080742F82400487F385520226846FDF7A9
:1092200003F904942878385C48B10EB10A4A00E08A
:1092300000226946281D01F07FFB09B0F0BD0EB188
:10924000064A00E00022694605F10C0001F02AFA06
:10925000F3E70000145A0020C1BD020069BC0200FF
:1092600030B40378054CE35C1BB130BC001D01F049
:1092700099BB30BC0C3001F07FBA0000105A0020BE
:1092800030B40378054CE35C1BB130BC001D01F029
:109290000BBC30BC0C3001F0E5BA0000105A0020C5
:1092A0000FB408B50399002904D004AA00926A46B5
:1092B00000F00FF801B05DF814FB10B582680446A9
:1092C000002A05D0D4E90403216898470020A06053
:1092D00010BD2DE9FC4791460C00804676D014F86D
:1092E000011B39B125290ED04046FEF79BFD2078A1
:1092F0000028F4D198F80C00002867D04046BDE85B
:10930000FC47FFF7DABF0020012221782B291BD070
:109310002D2902D0302908D102E040F0010001E0FF
:1093200040F00200641C002AEFD100252A290ED04B
:109330002178A1F130020A2A11D205EB850201EB56
:109340004205641C303DF1E740F00400EAE7D9F83B
:1093500000100B1DC9F800300968641C0D44217809
:1093600000232E290BD114F8011FA1F130020A2A83
:1093700005D203EB830201EB4203303BF3E76C2998
:109380000DD068290BD0692921D00BDC252918D0F4
:10939000582931D063290ED0642915D117E014F86B
:1093A000011FECE7702969D0732932D075291BD0D1
:1093B000782909D120E0D9F80000011DC9F8001072
:1093C00001784046FEF72EFD641C90E76CE0D9F86A
:1093D00000100A1DC9F800200968CDE900500A22D2
:1093E0004046FFF77DFAEFE7D9F800100A1DC9F8EB
:1093F000002009680A2206E0D9F800100A1DC9F801
:10940000002009681022CDE90050404602F06AFDB4
:10941000DAE7D9F8001000270A1DC9F800200E6805
:10942000C00705D112E04046761C7F1CFEF7FAFC0F
:1094300031780029F7D104E0202140466D1EFEF767
:10944000F1FCBD42C0D9002DF6D1BDE74EB130468A
:10945000FDF70EF8074604E0202140466D1EFEF79A
:10946000E1FCBD4206D9002DF6D103E04046761C52
:10947000FEF7D8FC31780029F8D1A5E7D9F800002B
:10948000011DC9F80010056830214046FEF7CAFCEE
:1094900078214046FEF7C6FC08200021CDE90001F6
:1094A000034610222946B0E7BDE8FC8704480121A5
:1094B0004174007A08B10020704701207047000015
:1094C00014660020012801D0032808D10449002295
:1094D00001284A7400D00020087401F009BF7047C9
:1094E0001466002070B50246022801D0032A45D137
:1094F000234C207A002841D0012833D0022831D1D2
:1095000020480023022A006802D0032A2AD11BE047
:10951000E360017911B1012924D10DE0D0E905659D
:10952000711B4FF48056B14200D33146294481610A
:109530004569A9420ED015E00169491C01614269E3
:1095400091420FD1237213E0E168491CE1600829C0
:1095500008D9E3602372022A0AD00D21FFF73AF9F5
:1095600001F0BCFE607C28B1BDE8704000F04EBE4A
:109570000021F3E7BDE8704001F0BABE70BD000005
:1095800014660020785A002070B541EA4201DDE9F6
:1095900004564FF0A04441EA830141EA052104EB5F
:1095A000800041EA0641C0F8001770BD70B541EA7D
:1095B0004201DDE904564FF0A04441EA830141EA4B
:1095C000052104EB800041EA0641C0F8001770BD98
:1095D00070B541EA4201DDE904564FF0A04441EA8A
:1095E000830141EA052104EB800041EA0641C0F80D
:1095F000001770BD70B541EA4201DDE904564FF035
:10960000A04441EA830141EA052104EB800041EADC
:109610000641C0F8001770BD1CB500220B46009231
:1096200011460192FFF7D4FF1CBD1CB500220B466A
:10963000009211460192FFF7DDFF1CBD1CB5002111
:1096400000910B46012201911146FFF7C1FF1CBD9D
:109650001CB5002100910B46012201911146FFF734
:10966000C9FF1CBD4FF0A04202EB8000D0F80027DC
:1096700022F44032C0F80027D0F8002742EA014126
:10968000C0F80017704701224FF0A043824011B18B
:10969000C3F808257047C3F80C25704718B5084B68
:1096A0006C4601441B68009306E000BF54F820306C
:1096B000D3F81035401C08C28142F7D818BD00000D
:1096C00000C10200034908B5084400210160006898
:1096D000009008BD0060004002494058012800D0B9
:1096E000002070470060004030B5124B014600205A
:1096F000D3F81044224609E0157A854205D1401C72
:109700000A28F7DB4FF0FF3030BD5268002AF3D152
:10971000421CF9D00872D3F810242AB152684A606A
:10972000D3F81024516030BD0022C3F810144A60F1
:1097300030BD0000546700207047FDF717B8704730
:1097400008B5034A00924023024A00F005F808BD1C
:10975000E9B5020054660020F0B595B01C461546E8
:109760000F4608461A9E00F005FB182109A8FCF7D1
:1097700074FE0E96CDE909540023082203A9384649
:1097800000F00DFB05980690BDF81000ADF81C0028
:10979000BDF81200ADF81E0000208DF821000398DE
:1097A000082600F00300012802D0022818D032E079
:1097B00003983346850AC0F3C2008DF82000039851
:1097C0000FA9C0F38314A200384600F0E8FA09A8F4
:1097D000009006AB22460FA9284600F027FA1AE0AF
:1097E0000398840DC0F3C2008DF82000082C01D22C
:1097F000254600E0082533462A460FA9384600F0E2
:10980000CEFA2E44641B09AB06AA29460FA800F025
:109810005FF9002CEAD1384600F0B2FA15B0F0BD7D
:109820000A4A012902EBC00007D0022907D0032908
:1098300007D0042907D00020704702207047042079
:109840007047007970474079704700006CCB020088
:1098500010B5FFF772FF04210348FFF745FF0249E7
:109860000120487210BD0000AC5A00202DE9F04FD5
:109870008DB0FEF7E7FA18B100200DB0BDE8F08F0B
:109880007A4C4FF0000BC4F818B4BFF34F8F6068E8
:109890000290A568D846284004EB800008E02168C3
:1098A0000298814201D86160E6E7284004EB80001D
:1098B0000C3002A9FFF7A8F80028F0D105AA0299F8
:1098C00001EA050304EB8303491CDB6842F82030FE
:1098D000401C02910228F2D3059800F003000228F0
:1098E00002D001284ED0A9E005985022810D89466A
:1098F000B2EB905F00D850210E4666F39F50059062
:1099000008315B4800F0EDF9070079D000F032FA39
:109910004346082205A9384600F047FA029908F1A3
:10992000080A2940681A8000001D864223D94F4D3D
:109930000C3530B1C2B204EB8101301A90460C31C3
:1099400004E02946F2B2002590462846C6B25346A6
:10995000384600F02AFA0AEB08032DB132462946B0
:109960004FEA070000F021FA029909F1030001EB28
:10997000900002903BE004EB8101534632463846AA
:109980000C31EFE70598C0F38310062800D30620BA
:10999000059960F38911C1F38310801C0591810042
:1099A000334800F09EF9070048D000F0E3F9434641
:1099B000082205A9384600F0F8F908F10808002641
:1099C0000FE00298434600EA0501401C04EB8101C8
:1099D0000290042238460C3100F0E7F908F104083F
:1099E000761C0598C0F38310B042EAD847B1D4F88A
:1099F0001054D4F8180468B1384600F0C1F92FE0CB
:109A00001CE0687A012804D12A6828463946126881
:109A100090476D68002DF4D1384600F0B1F98DF80B
:109A200000B06846FDF730FCD4F8180408B9029875
:109A300060609DF80000FDF74BFC11E0D4F8104485
:109A400004E021682046896888476468002CF8D1C2
:109A500008480221008801EB004007A100F016F839
:109A6000FEF7F0F980F0010007E7000054670020DE
:109A7000F4CB0200445B00204261636B656E64734B
:109A800020666C75736865640000000000231A4648
:109A900001F062BE08B5012300926A4601F05CFE47
:109AA00008BD1CB5CDE9002302236A4601F054FE2F
:109AB0001CBD70B586B00DF1280C9CE870008DE8D7
:109AC0007C0005236A4601F047FE06B070BD000029
:109AD0002DE9F0470E4680461C46924608293ED89E
:109AE00094F80C90002020731946104601F09EFB5C
:109AF0000025B54206D218F805201AA12046FFF726
:109B0000CFFB03E019A12046FFF7CAFB6D1C082D0F
:109B1000EFD317A12046FFF7C3FB0025B54210D2B3
:109B200018F80570FCF77CFC0068C05D10F03E0F73
:109B300001D03A4600E02E220EA12046FFF7B0FBEE
:109B400003E00DA12046FFF7ABFB6D1C082DE5D30C
:109B500001222146504601F04BFB84F80C90BDE8F1
:109B6000F0870000202530327800000020202000FF
:109B70007C0000002563000020000000104810B5A4
:109B8000FF218160002101604160C0F81814C0F815
:109B9000141480F820140B4800F0F0F800280DD1C0
:109BA00009480A490A4B401AC108002003E000BFD7
:109BB00023F82000401C8842FAD3002010BD00008A
:109BC00054670020F4CB0200F4CB02006CCB0200FF
:109BD000105B002002480349401AC008704700008B
:109BE000F4CB02006CCB020013B56846FFF71CF9FA
:109BF00008B100201CBD0248009950F831001CBD7E
:109C00006CCB020070B508480125D0F8104480F8EC
:109C1000205405E0657221682046496888476468D9
:109C2000002CF7D170BD0000546700202DE9FF47DC
:109C300081460C9D00200C462F7B287398461646C3
:109C40002946184601F0F2FA072E42D2DFE806F064
:109C500004090F161F2A360049462846FFF720FB45
:109C600037E0494628462268FFF71AFB31E0D4E97D
:109C7000002349462846FFF713FB2AE0A06800901E
:109C8000D4E9002349462846FFF70AFB21E0D4E93E
:109C90000201CDE90001D4E9002349462846FFF737
:109CA000FFFA16E004F1080007C88DE80700D4E9C0
:109CB000002349462846FFF7F3FA0AE004F10800BA
:109CC0000FC88DE80F00D4E9002349462846FFF766
:109CD000E7FA00222946404601F08AFA2F73BDE8D0
:109CE000FF872DE9F041858A80462D1F4819C01C49
:109CF000B0FBF5F0C6B24046FFF70CF9041E19D0D0
:109D00000020207101206071E58000272546761E25
:109D1000C4F800800BE04046FFF7FCF860B16179C1
:109D2000491C6171286005467F1CC0F80080B7425D
:109D3000F1D32046BDE8F081204600F002F8002073
:109D4000F8E72DE9F041457901466B1E002201E05C
:109D50000968521C9A42FBD30F680146002605E0B1
:109D600038460C68FFF7F8F82146761CAE42F7D368
:109D7000BDE8F0810121001DFFF7AAB8FFF704B983
:109D800010B504460121001DFFF7BEF810F0FF0FCB
:109D900004D12046BDE81040FFF7D3BF10BD38B551
:109DA00001240094FFF704F838BD38B5002400946E
:109DB000FEF7FEFF38BD0000064910B500204870D0
:109DC000091D0860BFF35F8F0349044800F06CFA77
:109DD000002010BD805A002060C1020028660020CB
:109DE00008B500208DF800006846FDF74DFAF1EE49
:109DF000100A20F09F00E1EE100ABFF35F8F0849C0
:109E00004020C1F880029DF80000FDF761FA00F0E3
:109E1000F7F908B141DF08BD20BF40BF20BF08BD32
:109E200004E000E020B103490968016000207047A8
:109E30000E20704760C302002DE9FE4302460E4625
:109E40000846FFF7EFFF00286ED10024009401942C
:109E500002208DF800204FF00808ADF804000294AD
:109E60008DF8028069462020326869DF2F4F012576
:109E700040B100F05DFA024638882D4905EB0040FC
:109E8000FFF708FE00948DF801408DF802800194E0
:109E900002948DF8035069464020326869DF40B172
:109EA00000F046FA02463888224905EB0040FFF7E9
:109EB000F1FD0094019402948DF800506946012050
:109EC000326869DF48B100F033FA3988024605EBA1
:109ED000014319491846FFF7DDFD4FF4B0600090CB
:109EE000019402946946A120326869DF40B100F014
:109EF0001FFA02463888114905EB0040FFF7CAFDFA
:109F00000094019402948DF800406946A0203268C4
:109F100069DF40B100F00CFA02463888084905EBC9
:109F20000040FFF7B7FD0020BDE8FE834C5B00203A
:109F300000CA020048CA020060C90200ACC902009F
:109F40000CC902002DE9F0410446D0F8008060DF22
:109F50002168194D074641451CD92888022606EB81
:109F6000004016A1FFF792FD2888424606EB00400C
:109F70001EA12368FFF795FDF006D0F80C012168BB
:109F8000800200F10050421A288825A106EB00400B
:109F9000FFF780FD012467B1384600F0C9F9024699
:109FA00028882AA104EB0040FFF774FD3846BDE87D
:109FB000F0812E480470F9E74C5B0020496E737500
:109FC0006666696369656E742052414D20616C6CF0
:109FD0006F636174656420666F72207468652053D6
:109FE0006F66744465766963652E00004368616E30
:109FF0006765207468652052414D207374617274E6
:10A00000206C6F636174696F6E2066726F6D2030B3
:10A0100078257820746F20307825782E0000000095
:10A020004D6178696D756D2052414D2073697A6577
:10A0300020666F72206170706C69636174696F6E05
:10A0400020697320307825782E00000073645F62E9
:10A050006C655F656E61626C652829207265747538
:10A06000726E65642025732E000000000B5B0020DB
:10A0700030B5154891B00078002822D05FF0340444
:10A08000ADF8404010A903A861DF48B1052818D0F9
:10A0900011B00EA2BDE8304040F23911FCF7BAB859
:10A0A00003AD1A49684600F0FFF806E0D0E9002148
:10A0B00028469047684600F00EF902980028DFD045
:10A0C000F4E711B030BD00000B5B00202E2E5C2E9B
:10A0D0002E5C2E2E5C2E2E5C2E2E5C2E2E5C636F44
:10A0E0006D706F6E656E74735C736F6674646576A5
:10A0F0006963655C636F6D6D6F6E5C6E72665F73D6
:10A1000064685F626C652E630000000064C3020037
:10A11000F8B5134C2078C0B10120A07001F036FAD8
:10A12000112814D0022001F049FA00258DF80050C2
:10A130006846FDF7A9F811DF064625709DF8000076
:10A14000FDF7C6F82EB13046F8BD0820F8BD002056
:10A15000F8BDA57001F07CFA032001F02FFAF6E7B4
:10A16000085B00207CB51A4C207808B108207CBD23
:10A170000120A070002001F009FA112819D0002058
:10A1800001F01CFA13480026006801908DF8006069
:10A190006846FDF779F8104901A810DF05000AD0DC
:10A1A000002020709DF80000FDF792F82DB12846A0
:10A1B0007CBD00207CBD0120F3E7A670667001F035
:10A1C00011FB01F081FA012001F0F8F9F1E700003C
:10A1D000085B0020F8C20200D56D02000EB50749E9
:10A1E000684600F061F805E0D0E90010884768464D
:10A1F00000F071F802980028F6D10EBD14C30200D9
:10A200000148007870470000085B0020054881780D
:10A2100019B1007818B1FFF77BBF08207047FFF72E
:10A22000A1BF0000085B00201FB568464BDF40B1AE
:10A23000052816D004B00BA2BDE810406B21FBF737
:10A24000E9BF184901A800F02FF806E0D0E9002185
:10A250000098904701A800F03EF803980028E4D049
:10A26000F4E71FBD2E2E5C2E2E5C2E2E5C2E2E5C57
:10A270002E2E5C2E2E5C636F6D706F6E656E747328
:10A280005C736F66746465766963655C636F6D6D3E
:10A290006F6E5C6E72665F7364685F736F632E636C
:10A2A0000000000080C30200016009684160AFF354
:10A2B000008010B5D0E900215368994201D10021F6
:10A2C00004E0D1E90034A34202D01946816010BDF8
:10A2D00008314160F0E7816800290BD0026892687C
:10A2E0000A44826041684B689A4203D10831416058
:10A2F000FFF7DFBF704700000C4A10B502F59473FA
:10A300000EE0991AC91001EBD171491002EBC1019D
:10A310000C68844201D90B4602E005D201F1080223
:10A320009A42EED3002010BD486810BD80C10200E3
:10A3300000B5FFF7E1FF002800D1014800BD000093
:10A340006CC102004058002800D00120704708B5B9
:10A35000002242504058009008BDD0F80403084045
:10A3600000D0012070474058002800D001207047DD
:10A3700008B5002242504058009008BD08480068C7
:10A38000012110F0010F08D14FF0E020E02280F809
:10A390000024C0F88012C0F8001102480160704724
:10A3A00000E100E0180500400649024600200B7954
:10A3B0000BB1852070470A6001220A7100224A71A0
:10A3C000704700001C5A002004490120086004481E
:10A3D0000168C1F300410029FAD170470C00004028
:10A3E00018040040002802D0014980010847704746
:10A3F00021C1020010B5044600F0E2FE28B120465B
:10A40000BDE810400021FFF72DB9204600F0E4FE22
:10A4100000280FD02046FDF797FD074A02EB800188
:10A42000D1F8103523F00103C1F810350121814026
:10A43000C2F8081310BD0000006000402DE9F04193
:10A440008846054600F0BCFE234E002828461AD058
:10A45000FDF77AFD304490F848008009032802D0C7
:10A4600001280ED007E04FF0A040D0F81005E840DA
:10A4700010F0010F05D003212846BDE8F041FFF799
:10A48000F1B80221F8E700F0A7FE002822D0284604
:10A49000FDF75AFD04464FF4807000EB84000F4F27
:10A4A00081B207EB8400D0F8102542F00102C0F819
:10A4B00010250846FFF706F9B8F1000F0AD0284624
:10A4C000FDF742FD56F82000002803D00120A040EF
:10A4D000C7F80403BDE8F0818463002000600040F9
:10A4E0002DE9FC41DFF8BC80044608EB040000279E
:10A4F00090F930001346C0170E46401C01D00827C3
:10A500004CE0B0781946C0F340022046FDF7F8FC55
:10A510000546401C41D0B078410719D4C0070AD085
:10A520004FF0A04000EB8401D1F8000720F00200BA
:10A53000C1F8000707E000217378204600910A4621
:10A540000191FFF733F8174920465431FEF73CFDDF
:10A55000B078800718D51448317800EB8500D0F822
:10A560001025124B1A40C0F810254FF4F8524FF442
:10A57000403302EA042203EA01410A43D0F81015ED
:10A580000A43C0F8102509E008EB0500327810F8FE
:10A59000481F41EA8211017000E004273846BDE8F7
:10A5A000FC8100008463002000600040FFE0FCFFAD
:10A5B0004FF0A041D1F81015C14011F0010000D0BA
:10A5C0000120704770B5184D95F8580008B1082063
:10A5D00070BD0020411E2A18401CC0B282F8301005
:10A5E0002028F8D300242046FDF77CFC641CE4B24C
:10A5F0000C2CF8D300240D49E0206C6581F8000490
:10A6000001264020891FC1F88002C1F800014FF4E3
:10A61000BE70FFF757F80649F007C1F8040385F844
:10A620005860204670BD00008463002006E000E012
:10A6300000600040034890F85800002800D0012036
:10A6400070470000846300200121B1EB507F01D1ED
:10A65000012070470020704738B50D4600F032FEEB
:10A66000040014D000208DF800006846FCF70CFEB2
:10A67000207928B19DF80000FCF72AFE112038BD92
:10A680000120256020719DF80000FCF721FE0020CC
:10A6900038BD00000149024801F0FEBAE063002025
:10A6A000002000402DE9F0410546007916460F468E
:10A6B00000EB40012D4A01EBC00102EB810494F84C
:10A6C0002A1011B10820BDE8F081294951F8201065
:10A6D0002868FFF7C1FF08B11120F4E73946284682
:10A6E000FCF710FE66603869206030004FF001060C
:10A6F0002FD03F7F4FF48E712868FFF728FE4FF46C
:10A70000A2712868FFF723FE28681A49C0F80413CD
:10A7100028684FEA4711000B40B2002806DA00F023
:10A720000F0000F1E02080F8141D03E000F1E020AC
:10A7300080F800142868000B40B200F01F0206FAEF
:10A7400002F14009800000F1E020C0F88012C0F85A
:10A75000001128680421C0F800150020A061E06104
:10A7600084F8290044F8140FA675ACE7E0630020D4
:10A7700004C10200800002002DE9F05F0546007967
:10A780004FF4017600EB400303EBC000344B03EBC6
:10A7900080040020636813B12B68C3F80863A369C1
:10A7A0004FF000096BB1E06938B1606810B12868FA
:10A7B000C0F804631120BDE8F09FE261012021612F
:10A7C00005E0C4F82490A261E160C4F81C9094F8FC
:10A7D0002910014302D1284600F044FE6068002899
:10A7E000286803D0C0F804630020E4E74FF4A276A1
:10A7F0003146FFF7ACFDB2464FF4927B59462868CC
:10A80000FFF7A0FD06464FF484712868FFF79AFD14
:10A81000804651462868FFF795FD074648EA07003D
:10A820003043EBD056EA070007D12146286800F0F4
:10A83000E9FDA169606A8142E0D8C4F818900EB1C0
:10A840000320B8E70FB10F20B5E794F829100120D5
:10A850000029296801D00860C6E74860C4E7000005
:10A86000E06300202DE9F047054600790B4600EB38
:10A87000400101EBC000234901EB8004284600F0B1
:10A8800043F810B11120BDE8F0874FF00008C4F87C
:10A890002080A360626184F828804FF48E7647465A
:10A8A00031462868FFF753FD28684FF00109C0F8CA
:10A8B00008902146286801F0DBF8606800BBD5F8F5
:10A8C00000A00EE094F8280008B10F2716E03146EA
:10A8D0005046FFF737FD0028F4D02146504601F0DE
:10A8E000C7F8216A60698142F1D331462868FFF7D1
:10A8F00029FD0028F9D02868C0F80C90C4F814800D
:10A900003846C0E7E0630020007900EB400101EB2E
:10A91000C000044901EB80004069002800D00120FC
:10A9200070470000E06300200149024801F060BA6E
:10A930000C640020002000402DE9F0410546164639
:10A9400000790F46154A00EBC00102EB810494F830
:10A95000201011B10820BDE8F081114951F82010F4
:10A960002868FFF779FE08B11120F4E73946284638
:10A97000FCF70CFD6660386920601EB1397F2846FF
:10A98000FEF702F828680821C0F800150020A06131
:10A99000E0610121606184F82010DCE70C64002094
:10A9A00008C102002DE9F05F044600790E4600EB75
:10A9B000C001DFF8F0A017460AEB81053046FFF72B
:10A9C00043FEB0B168684FF000084FF4047910B14D
:10A9D0002168C1F80893A8694FF0000B80B1E869BD
:10A9E00048B1686810B12068C0F804931120BDE830
:10A9F000F09F1020FBE7EF614FF001082E6102E0AD
:10AA0000EE60C5E9067B00254FF488712068FFF7EA
:10AA1000AFFC4FF4A2712068FFF7AAFC2068C0F8D1
:10AA20003465C0F838752068B8F1000F12D0D0F83E
:10AA3000001241F02001C0F800122079D04600EB4E
:10AA4000C0010AEB8100406838B12068C0F8049367
:10AA50002846CCE701210160EFE74FF4887A4FF4F4
:10AA6000A27951462068FFF77EFC074649462068D8
:10AA7000FFF779FC06464FF492712068FFF773FCEC
:10AA8000014647EA06000843EBD0227902EBC203F5
:10AA900008EB8302C2F818B001B10325002ED7D00D
:10AAA0000F25D5E70C6400202DE9F04704460E463B
:10AAB0000079204900EBC00001EB800517463046C5
:10AAC000FFF7C2FD30B1204600F036F820B111206A
:10AAD000BDE8F0871020FBE76F61AE604FF4907621
:10AAE000002731462068FFF743FC4FF4AC7841461D
:10AAF0002068FFF73DFC2068AA686969C0F8442512
:10AB0000C0F84815206801218160686878B9B146AD
:10AB100049462068FFF727FC064641462068FFF7B4
:10AB200022FC0643F4D000B10F27002068613846AC
:10AB3000CEE700000C6400200079054900EBC0005E
:10AB400001EB80004069002800D001207047000020
:10AB50000C6400202DE9F0410446818B8069784A1D
:10AB6000FCF75EFC0326DFF8DC81774D012790B10E
:10AB70002888734B06EB004074A1A269FEF791FF91
:10AB80006F4A0021083A0123C8F8041002F1580165
:10AB9000A01C8CDF18E06A4AA18B0A32A069FCF77E
:10ABA0003FFCD8B12888664B06EB00400A3367A10A
:10ABB000A269FEF776FF624A0123083A02F15801C2
:10ABC000A01CC8F804708CDF020072D0288862A133
:10ABD00007EB0040BDE8F041FEF75CBF584AA18B8F
:10ABE0001432A069FCF71CFC98B12888544B06EB82
:10ABF0000040143355A1A269FEF753FF504A0221C9
:10AC0000083A0123C8F8041002F15801A01C8CDF97
:10AC1000DAE74B4AA18B1E32A069FCF701FC90B128
:10AC20002888474B06EB00401E3348A1A269FEF777
:10AC300038FF434A0123083A02F15801A01CC8F822
:10AC400004608CDFC0E73E4AA18B2832A069FCF784
:10AC5000E7FB98B128883A4B06EB004028333BA12C
:10AC6000A269FEF71EFF364A0421083A0123C8F8FC
:10AC7000041002F15801A01C8CDFA5E7304AA18B1B
:10AC80003232A069FCF7CCFBA0B128882C4B06EB34
:10AC9000004032332DA1A269FEF703FF284A0521A7
:10ACA000083A0123C8F8041002F15801A01C8CDFF7
:10ACB0008AE742E0224AA18B3C32A069FCF7B0FB54
:10ACC00098B128881E4B06EB00403C331FA1A269B7
:10ACD000FEF7E7FE1A4A0621083A0123C8F80410D5
:10ACE00002F15801A01C8CDF6EE7154AA18B463299
:10ACF000A069FCF795FB98B12888114B06EB004042
:10AD0000463312A1A269FEF7CCFE0D4A0721083A8C
:10AD10000123C8F8041002F15801A01C8CDF53E78E
:10AD20000849083100208ADF002806D0BDE8F0413C
:10AD300013A240F24121FBF76DBABDE8F08100009B
:10AD4000D0BF020068430020445B002025782041EA
:10AD500064763A2025730000436F6E6E65637469F4
:10AD60006F6E2052657175657374204661696C65FC
:10AD7000642C20726561736F6E20256400000000F2
:10AD80002E2E5C2E2E5C2E2E5C6D61696E2E630065
:10AD90002DE9F84F05460C460888B5F8CA128842D6
:10ADA00059D195F8C602DFF8F8A000EB8001C1EB9D
:10ADB000801005EB400160884FF003094FF0000858
:10ADC000F0BBE6880879A21DF3B250FA86F6062E8B
:10ADD00001D8034400E006230B7100261CE000BFED
:10ADE00000EBC00306EB860702EB470701EB4303CA
:10ADF000D7F802C0C3F80AC0D7F806C0C3F80EC01F
:10AE00007F895F82A3F81480A3F81680A3F81880C6
:10AE1000401CA3F81A80761C0B798342E0D895F881
:10AE2000C62200EBC00002EB8203C3EB821205EBEB
:10AE3000420231F81000128990420ED2087900E0E7
:10AE40000BE0062809D085F8C50221882846FDF7C1
:10AE500083F801000AD1BDE8F88F85F8C582228801
:10AE600069462846FDF79AF901000BD085F8C7829C
:10AE700022882846FDF76CFA8AF800902188AAF803
:10AE80000210E8E79DF800000028E4D022880121A4
:10AE90002846FDF715FA2188284600F053F9DAE72D
:10AEA000D05F002070B58D88027900EBC504227355
:10AEB000C97BA41D012902D0022904D101E0008828
:10AEC00000E0408820802188608881420FD9284690
:10AED000A5DF0126A0B1112814D0FFF729FA0246F8
:10AEE0000A480BA1008806EB0040FEF7D3FDA179CC
:10AEF000E079814208D92846BDE87040FDF7E6B800
:10AF00006671F4E72671F2E770BD0000145B002063
:10AF100073645F626C655F67617474635F657863B7
:10AF200068616E67655F6D74755F72657175657375
:10AF30007428292072657475726E65642025732EDD
:10AF400000000000F8B505460C460888B5F8CA129E
:10AF500088425DD195F8C602A61D00EB8001C1EBC9
:10AF6000801005EB400395F8C502618800EBC00036
:10AF700003EB40000A3039B329E000BF01EB410286
:10AF800006EB42029788B7F5245F0CD06FF4245C7F
:10AF900017EB0C070AD0012F02D0072F0BD108E0C6
:10AFA0005288428107E05288828104E05288C2813F
:10AFB00001E05288028242892AB182891AB1C2898B
:10AFC0000AB1028A1AB9491C32888A42D6D80026A8
:10AFD0008DF8006095F8C5021979401C884203D1AC
:10AFE00001208DF8000018E085F8C5022288694626
:10AFF0002846FDF7D3F801000BD085F8C7622288F8
:10B000002846FDF7A5F90A480321017021884180EF
:10B01000F8BD9DF800000028FAD0228801212846BA
:10B02000FDF74EF92188284600F08CF8F8BD0000A5
:10B03000D05F00207CB506468D88C88806EBC50425
:10B04000A41D172800D217202188814200D8084665
:10B0500060800020207121882846B5DF50B1FFF7BD
:10B0600067F902460E480121008801EB00400DA15E
:10B07000FEF710FD6079002810D1B06C00280DD0CB
:10B080001449D1E90201CDE90001ADF80250608810
:10B09000ADF80400B26C6946304690477CBD0000B4
:10B0A000145B002073645F626C655F676174747326
:10B0B0005F65786368616E67655F6D74755F726503
:10B0C000706C7928292072657475726E656420250C
:10B0D000732E0000CCC0020070B505460C4690F8F7
:10B0E000C602228800EB8001C1EB801005EB400115
:10B0F000B5F8CA02824222D1608848B100212846B0
:10B10000FDF7DEF821882846BDE8704000F01AB847
:10B11000A2680A60E068C1F8060021882846FCF7AA
:10B120001BFF01000BD0002085F8C70222882846AB
:10B13000FDF70EF90248032101702188418070BD9E
:10B14000D05F00202DE9F041044690F8C9020E4678
:10B15000401C1949C0B284F8C902C9680327174DB9
:10B160004FF0000E884224D284F8C5E294F8C6025B
:10B17000401CC0B200EB8001C1EB801104EB410226
:10B1800084F8C602A5F1180101EB800001210068D6
:10B19000106082F804E030469BDF010007D084F89D
:10B1A000C7E232462046FDF7D3F82F706E80BDE827
:10B1B000F08184F8C7E2F8E7F8590020D05F00205A
:10B1C0000449084490F93000082801DB0120704749
:10B1D00000207047846300200449084490F930003F
:10B1E000082801D2012070470020704784630020A6
:10B1F00010B50C46017A052908D0407A38B10848C4
:10B2000008A102682046FEF74BF800E01AB106A13B
:10B210002046FEF745F82046BDE81040FEF74DB841
:10B22000E45A0020257300000D0A000038B5C388D9
:10B230000D46044633B114A0009015A216A128466D
:10B24000FEF72EF8217A05291CD0607A48B1A08833
:10B25000FEF7E6FA164951F8202016A12846FEF717
:10B260001FF8A0880021FEF7BFFC03461049207A92
:10B27000143951F8202001B02846BDE830400EA115
:10B28000FEF70EB838BD00001B5B306D00000000FB
:10B290001B5B313B33316D0025734C6F677320644A
:10B2A000726F70706564202825642925730D0A006B
:10B2B000E45A0020257300003C25733E2025733A94
:10B2C000200000000349884201D103487047002054
:10B2D0007047000000200040245A00200348024923
:10B2E0000068FDF7B9BD00007C5A002038C102009B
:10B2F0002DE9F041234C0025234E207A012730B957
:10B300002248311D0068FDF7B2FD306038B10220DF
:10B3100020723168087928B101281ED116E06560D5
:10B32000BDE8F081D1E90503C01A4FF48052904284
:10B3300000D31046B7EB900F01D2820800E0012243
:10B340000869C9681844194429DF03E0D1E90301F9
:10B35000084428DF58B1112812D003213068FDF7C6
:10B3600039FA25726560BDE8F041FFF7B7BF207C70
:10B370000028D5D1BDE8F04100210220FEF7B2B887
:10B380002772CDE714660020785A002038C10200E9
:10B3900070B50C4B00210A4ADC680DE002EB810518
:10B3A0008678AD78B54206D132F821500688B5428C
:10B3B00001D1586870BD491CA142EFD3002070BD77
:10B3C000B85F0020F859002070B5012670044FF0D6
:10B3D000E0210025C1F88001084C4010C4F8480362
:10B3E000C4F8080366602F20FEF7FCFFA660044C3B
:10B3F0002F20A560FEF7F6FFA57070BD001001407C
:10B40000505A002070B5054688690C4600284FF454
:10B41000847128460AD0FEF79AFFD5F81805626AAB
:10B42000E1688854606A401C606270BDFEF78FFF5F
:10B43000D5F8180570BD1FB501238DF80030CDE992
:10B440000121D0E90012684690471FBD1FB50123B6
:10B450008DF800308DF808100192D0E9001268468E
:10B4600090471FBD10B5044600684FF49271FEF777
:10B470006EFF4FF484712068FEF769FF2068012198
:10B48000016010BD10B58BDF0B4803210B4A00880B
:10B4900001EB00400AA1FEF7FDFA084811495030BF
:10B4A0008ADF18B110A2B221FAF7B4FEBDE810404D
:10B4B0000020FCF73BBC0000445B0020D0BF020032
:10B4C0005374617274207363616E6E696E67206677
:10B4D0006F7220646576696365206E616D652025F5
:10B4E000732E0000704300202E2E5C2E2E5C2E2E1C
:10B4F0005C6D61696E2E630070B50D460446FBF706
:10B50000A3FB70B12846FBF7B1FB68B16807000EDA
:10B51000002C0CDA04F00F0101F1E02181F8140D88
:10B5200009E042F2010070BD42F2020070BD04F178
:10B53000E02484F80004002070BD000038B500212C
:10B54000012548B101280CD0032809D1FEF716FFC8
:10B55000BDE83840FDF738BE4FF0E020C0F880511C
:10B5600038BD8DF800106846FBF78EFE064C20783B
:10B5700008B9FDF70DFEE068401CE060A5709DF87D
:10B580000000FBF7A5FE38BD706300203EB5044601
:10B5900009496846FEF788FE08E000BFD0E90021AF
:10B5A0002046904730B16846FEF795FE0298002885
:10B5B000F4D13EBD11203EBDFCC202003EB50446A2
:10B5C00008496846FEF770FE07E000BFD0E9002199
:10B5D000204690476846FEF77EFE02980028F5D187
:10B5E0003EBD000008C302002DE9F041140088466A
:10B5F00018D000250E4F032608EB05012246002037
:10B60000FBF7B6F80544241A40B93878002809D069
:10B6100008494FF47A408847761E05D001203870DB
:10B62000002CE9D1BDE8F08100203870FAE7000075
:10B63000A85A0020E1C20200002805D103490120D8
:10B6400048700020FCF7AABC70470000706300201F
:10B6500010B51620FBF7F8FA48B10B4882684FF492
:10B66000800162B1016821F48001016010BDBDE874
:10B67000104042F2010005A2AD21FAF7CBBD4FF018
:10B68000E020C0F8801110BD7C6500202E2E5C2EBD
:10B690002E5C2E2E5C2E2E5C2E2E5C2E2E5C636F6E
:10B6A0006D706F6E656E74735C736F6674646576CF
:10B6B0006963655C636F6D6D6F6E5C6E72665F7300
:10B6C00064682E630000000010B51620FBF7BCFA7A
:10B6D00080B1104890F800044009FBF7C7FA60B148
:10B6E0000D4882684FF480017AB1016841F480010D
:10B6F000016010BD42F2010001E042F20200BDE82B
:10B70000104006A2A121FAF785BD4FF0E020C0F855
:10B71000001110BD16E000E07C6500202E2E5C2E8E
:10B720002E5C2E2E5C2E2E5C2E2E5C2E2E5C636FDD
:10B730006D706F6E656E74735C736F66746465763E
:10B740006963655C636F6D6D6F6E5C6E72665F736F
:10B7500064682E63000000002DE9F84F204D9246EA
:10B76000894606469846012269461846AF68FCF7A6
:10B7700011FB58B3009800210446801C09E000BF6B
:10B7800000EA07035AF8212005EB8303401C491CFB
:10B79000DA604145F4D34FEA164AFCF725FE4AEA3F
:10B7A0000041601C384005EB80003C4005EB840202
:10B7B000C160D06866F3C50068F3891069F39F2003
:10B7C00020F00300401C20F00400D06095F8200415
:10B7D00002E000BFFEF74AF80028FBD1BDE8F88F71
:10B7E0005467002010B507211620FFF785FE18B119
:10B7F00008A2BF21FAF70EFD07211520FFF77CFEF6
:10B80000002805D0BDE8104002A2C121FAF702BD10
:10B8100010BD00002E2E5C2E2E5C2E2E5C2E2E5C7B
:10B820002E2E5C2E2E5C636F6D706F6E656E747362
:10B830005C736F66746465766963655C636F6D6D78
:10B840006F6E5C6E72665F7364682E63000000004A
:10B850002DE9F84F1D4C00256846D4E901A6FCF7F8
:10B86000CDFD002738B30023009A61681CE0D1F8B1
:10B8700000C00846944503D9ACEB02020A6015E00B
:10B88000A2EB0C0263440760D0F80CC0C16981468A
:10B89000BCF1000F08D006EB030828F07F48C0E990
:10B8A000018CC9F81C5005460029E0D1284661608A
:10B8B000FDF712F903E02846FDF70EF910B15046E6
:10B8C000FCF78EFBE770BDE8F88F0000505A0020AF
:10B8D0000D4B10B5596831B102680C68A24204D80A
:10B8E000A21A0A60C161586010BD0B4603E00B4606
:10B8F000C969121B21B10C689442F8D3A41A0C60D8
:10B900000260C161D86110BD505A00202DE9F0419C
:10B91000144E77683D462C4603E0844204D0254609
:10B92000E469002CF9D11BE0D4B1A5420BD1F86930
:10B93000706040B90C49012088600021B160F0704E
:10B940002F20FEF74FFD2168E069E86110B1026821
:10B95000114401607068874202D00120BDE8F08187
:10B960000020FBE7505A0020001001407CB506463D
:10B9700000240D468DF800406846FBF785FC01A8C1
:10B9800000F00AFB70B10570094946609DF804009B
:10B9900048709DF80000FBF79BFC1420FAF78CFE22
:10B9A00020467CBD04249DF80000FBF791FCF7E7DE
:10B9B000706400202DE9F041194D6C68002C2CD0EA
:10B9C000184800270068A968B846401A20F07F464A
:10B9D0002068B0420CD82146361A0744E469087C36
:10B9E00020B181F81080886949698847002CEFD11F
:10B9F00029786878814206D1401CC0B2687002285C
:10BA000001D185F80180064869780C3040F8217032
:10BA1000BDE8F0411420FAF74FBEBDE8F081000008
:10BA2000505A00200415014010B50F4CD4E9001005
:10BA3000884211D000EB80020C4800EB82018B7829
:10BA40005BB130F822000831A3DF002804D120794F
:10BA5000401C00F00700606010BD30F822008988AB
:10BA60000022A1DFF1E70000085A0020D062002088
:10BA700070B50C4605464FF48E71FEF768FC216ADE
:10BA8000A068415C206A401C2062C5F81C1570BD8E
:10BA90001FB500228DF8002002918168019142615A
:10BAA000D0E90012684690471FBD00002DE9F04123
:10BAB000027804466AB124480321012A008801EB78
:10BAC000004036D0022A32D1BDE8F0411FA1FDF777
:10BAD000DDBF2C4C2A4D20882844FBF71FFB208813
